{
  "_format": "hh-sol-artifact-1",
  "contractName": "Lottery",
  "sourceName": "contracts/Lottery.sol",
  "abi": [
    {
      "inputs": [
        {
          "internalType": "address",
          "name": "_usdtToken",
          "type": "address"
        }
      ],
      "stateMutability": "nonpayable",
      "type": "constructor"
    },
    {
      "inputs": [
        {
          "internalType": "uint256",
          "name": "numOfTicketsToBuy",
          "type": "uint256"
        }
      ],
      "name": "BuyTickets",
      "outputs": [],
      "stateMutability": "nonpayable",
      "type": "function"
    },
    {
      "inputs": [],
      "name": "CurrentWinningReward",
      "outputs": [
        {
          "internalType": "uint256",
          "name": "",
          "type": "uint256"
        }
      ],
      "stateMutability": "view",
      "type": "function"
    },
    {
      "inputs": [],
      "name": "DrawWinnerTicket",
      "outputs": [],
      "stateMutability": "nonpayable",
      "type": "function"
    },
    {
      "inputs": [],
      "name": "IsWinner",
      "outputs": [
        {
          "internalType": "bool",
          "name": "",
          "type": "bool"
        }
      ],
      "stateMutability": "view",
      "type": "function"
    },
    {
      "inputs": [],
      "name": "RefundAll",
      "outputs": [],
      "stateMutability": "nonpayable",
      "type": "function"
    },
    {
      "inputs": [],
      "name": "RemainingTickets",
      "outputs": [
        {
          "internalType": "uint256",
          "name": "",
          "type": "uint256"
        }
      ],
      "stateMutability": "view",
      "type": "function"
    },
    {
      "inputs": [],
      "name": "WithdrawCommission",
      "outputs": [],
      "stateMutability": "nonpayable",
      "type": "function"
    },
    {
      "inputs": [],
      "name": "WithdrawWinnings",
      "outputs": [],
      "stateMutability": "nonpayable",
      "type": "function"
    },
    {
      "inputs": [],
      "name": "checkWinningsAmount",
      "outputs": [
        {
          "internalType": "uint256",
          "name": "",
          "type": "uint256"
        }
      ],
      "stateMutability": "view",
      "type": "function"
    },
    {
      "inputs": [],
      "name": "duration",
      "outputs": [
        {
          "internalType": "uint256",
          "name": "",
          "type": "uint256"
        }
      ],
      "stateMutability": "view",
      "type": "function"
    },
    {
      "inputs": [],
      "name": "expiration",
      "outputs": [
        {
          "internalType": "uint256",
          "name": "",
          "type": "uint256"
        }
      ],
      "stateMutability": "view",
      "type": "function"
    },
    {
      "inputs": [],
      "name": "getTickets",
      "outputs": [
        {
          "internalType": "address[]",
          "name": "",
          "type": "address[]"
        }
      ],
      "stateMutability": "view",
      "type": "function"
    },
    {
      "inputs": [
        {
          "internalType": "address",
          "name": "addr",
          "type": "address"
        }
      ],
      "name": "getWinningsForAddress",
      "outputs": [
        {
          "internalType": "uint256",
          "name": "",
          "type": "uint256"
        }
      ],
      "stateMutability": "view",
      "type": "function"
    },
    {
      "inputs": [],
      "name": "lastWinner",
      "outputs": [
        {
          "internalType": "address",
          "name": "",
          "type": "address"
        }
      ],
      "stateMutability": "view",
      "type": "function"
    },
    {
      "inputs": [],
      "name": "lastWinnerAmount",
      "outputs": [
        {
          "internalType": "uint256",
          "name": "",
          "type": "uint256"
        }
      ],
      "stateMutability": "view",
      "type": "function"
    },
    {
      "inputs": [],
      "name": "lotteryOperator",
      "outputs": [
        {
          "internalType": "address",
          "name": "",
          "type": "address"
        }
      ],
      "stateMutability": "view",
      "type": "function"
    },
    {
      "inputs": [],
      "name": "maxTickets",
      "outputs": [
        {
          "internalType": "uint256",
          "name": "",
          "type": "uint256"
        }
      ],
      "stateMutability": "view",
      "type": "function"
    },
    {
      "inputs": [],
      "name": "operatorTotalCommission",
      "outputs": [
        {
          "internalType": "uint256",
          "name": "",
          "type": "uint256"
        }
      ],
      "stateMutability": "view",
      "type": "function"
    },
    {
      "inputs": [],
      "name": "restartDraw",
      "outputs": [],
      "stateMutability": "nonpayable",
      "type": "function"
    },
    {
      "inputs": [],
      "name": "ticketCommission",
      "outputs": [
        {
          "internalType": "uint256",
          "name": "",
          "type": "uint256"
        }
      ],
      "stateMutability": "view",
      "type": "function"
    },
    {
      "inputs": [],
      "name": "ticketPrice",
      "outputs": [
        {
          "internalType": "uint256",
          "name": "",
          "type": "uint256"
        }
      ],
      "stateMutability": "view",
      "type": "function"
    },
    {
      "inputs": [
        {
          "internalType": "uint256",
          "name": "",
          "type": "uint256"
        }
      ],
      "name": "tickets",
      "outputs": [
        {
          "internalType": "address",
          "name": "",
          "type": "address"
        }
      ],
      "stateMutability": "view",
      "type": "function"
    },
    {
      "inputs": [],
      "name": "usdtToken",
      "outputs": [
        {
          "internalType": "contract IERC20",
          "name": "",
          "type": "address"
        }
      ],
      "stateMutability": "view",
      "type": "function"
    },
    {
      "inputs": [
        {
          "internalType": "address",
          "name": "",
          "type": "address"
        }
      ],
      "name": "winnings",
      "outputs": [
        {
          "internalType": "uint256",
          "name": "",
          "type": "uint256"
        }
      ],
      "stateMutability": "view",
      "type": "function"
    }
  ],
  "bytecode": "0x608060405260006003553480156200001657600080fd5b5060405162001d5338038062001d5383398181016040528101906200003c919062000144565b806000806101000a81548173ffffffffffffffffffffffffffffffffffffffff021916908373ffffffffffffffffffffffffffffffffffffffff16021790555033600160006101000a81548173ffffffffffffffffffffffffffffffffffffffff021916908373ffffffffffffffffffffffffffffffffffffffff16021790555061070842620000cd9190620001af565b60028190555050620001ea565b600080fd5b600073ffffffffffffffffffffffffffffffffffffffff82169050919050565b60006200010c82620000df565b9050919050565b6200011e81620000ff565b81146200012a57600080fd5b50565b6000815190506200013e8162000113565b92915050565b6000602082840312156200015d576200015c620000da565b5b60006200016d848285016200012d565b91505092915050565b6000819050919050565b7f4e487b7100000000000000000000000000000000000000000000000000000000600052601160045260246000fd5b6000620001bc8262000176565b9150620001c98362000176565b9250828201905080821115620001e457620001e362000180565b5b92915050565b611b5980620001fa6000396000f3fe608060405234801561001057600080fd5b50600436106101585760003560e01c806371827b7b116100c3578063ba946d791161007c578063ba946d7914610339578063c6944fa014610357578063dd64e53414610375578063ea3a1499146103a5578063f2613269146103d5578063fe188184146103df57610158565b806371827b7b146102ad57806393a563b5146102b757806396c85ef3146102d55780639b894703146102f3578063a88f467214610311578063a98ad46c1461031b57610158565b80634788af7c116101155780634788af7c146101fd5780634ed026221461020757806350b447121461022557806359ab0306146102555780635a58acdd146102715780636032a4f91461028f57610158565b806306f7f3bf1461015d5780630789c6071461017b5780630fb5a6b4146101995780631209b1f6146101b757806335580df2146101d55780634665096d146101df575b600080fd5b6101656103fd565b604051610172919061115b565b60405180910390f35b610183610403565b604051610190919061115b565b60405180910390f35b6101a161044a565b6040516101ae919061115b565b60405180910390f35b6101bf610450565b6040516101cc919061115b565b60405180910390f35b6101dd61045c565b005b6101e76105db565b6040516101f4919061115b565b60405180910390f35b6102056105e1565b005b61020f61087b565b60405161021c9190611266565b60405180910390f35b61023f600480360381019061023a91906112b9565b610909565b60405161024c91906112f5565b60405180910390f35b61026f600480360381019061026a91906112b9565b610948565b005b610279610b52565b60405161028691906112f5565b60405180910390f35b610297610b78565b6040516102a4919061115b565b60405180910390f35b6102b5610b84565b005b6102bf610d34565b6040516102cc919061115b565b60405180910390f35b6102dd610d4d565b6040516102ea919061132b565b60405180910390f35b6102fb610d96565b604051610308919061115b565b60405180910390f35b610319610d9b565b005b610323610f37565b60405161033091906113a5565b60405180910390f35b610341610f5b565b60405161034e919061115b565b60405180910390f35b61035f610f61565b60405161036c919061115b565b60405180910390f35b61038f600480360381019061038a91906113ec565b610f81565b60405161039c919061115b565b60405180910390f35b6103bf60048036038101906103ba91906113ec565b610fca565b6040516103cc919061115b565b60405180910390f35b6103dd610fe2565b005b6103e76110de565b6040516103f491906112f5565b60405180910390f35b60055481565b6000600660003373ffffffffffffffffffffffffffffffffffffffff1673ffffffffffffffffffffffffffffffffffffffff16815260200190815260200160002054905090565b61070881565b678ac7230489e8000081565b600160009054906101000a900473ffffffffffffffffffffffffffffffffffffffff1673ffffffffffffffffffffffffffffffffffffffff163373ffffffffffffffffffffffffffffffffffffffff16146104ec576040517f08c379a00000000000000000000000000000000000000000000000000000000081526004016104e39061149c565b60405180910390fd5b60006003549050600060038190555060008054906101000a900473ffffffffffffffffffffffffffffffffffffffff1673ffffffffffffffffffffffffffffffffffffffff1663a9059cbb33836040518363ffffffff1660e01b81526004016105569291906114bc565b6020604051808303816000875af1158015610575573d6000803e3d6000fd5b505050506040513d601f19601f820116820180604052508101906105999190611511565b6105d8576040517f08c379a00000000000000000000000000000000000000000000000000000000081526004016105cf9061158a565b60405180910390fd5b50565b60025481565b600160009054906101000a900473ffffffffffffffffffffffffffffffffffffffff1673ffffffffffffffffffffffffffffffffffffffff163373ffffffffffffffffffffffffffffffffffffffff1614610671576040517f08c379a00000000000000000000000000000000000000000000000000000000081526004016106689061149c565b60405180910390fd5b6000600780549050116106b9576040517f08c379a00000000000000000000000000000000000000000000000000000000081526004016106b0906115f6565b60405180910390fd5b6000600780549050436106cc9190611645565b409050600042826040516020016106e49291906116c5565b6040516020818303038152906040528051906020012060001c90506000600780549050826107129190611720565b905060006007828154811061072a57610729611751565b5b9060005260206000200160009054906101000a900473ffffffffffffffffffffffffffffffffffffffff16905080600460006101000a81548173ffffffffffffffffffffffffffffffffffffffff021916908373ffffffffffffffffffffffffffffffffffffffff160217905550670de0b6b3a7640000678ac7230489e800006107b49190611645565b6007805490506107c49190611780565b600581905550600554600660008373ffffffffffffffffffffffffffffffffffffffff1673ffffffffffffffffffffffffffffffffffffffff168152602001908152602001600020600082825461081b91906117c2565b92505081905550670de0b6b3a764000060078054905061083b9190611780565b6003600082825461084c91906117c2565b92505081905550600760006108619190611104565b6107084261086f91906117c2565b60028190555050505050565b606060078054806020026020016040519081016040528092919081815260200182805480156108ff57602002820191906000526020600020905b8160009054906101000a900473ffffffffffffffffffffffffffffffffffffffff1673ffffffffffffffffffffffffffffffffffffffff16815260200190600101908083116108b5575b5050505050905090565b6007818154811061091957600080fd5b906000526020600020016000915054906101000a900473ffffffffffffffffffffffffffffffffffffffff1681565b6000811161098b576040517f08c379a000000000000000000000000000000000000000000000000000000000815260040161098290611842565b60405180910390fd5b610993610d34565b8111156109d5576040517f08c379a00000000000000000000000000000000000000000000000000000000081526004016109cc906118ae565b60405180910390fd5b6000678ac7230489e80000826109eb9190611780565b905060008054906101000a900473ffffffffffffffffffffffffffffffffffffffff1673ffffffffffffffffffffffffffffffffffffffff166323b872dd3330846040518463ffffffff1660e01b8152600401610a4a939291906118ce565b6020604051808303816000875af1158015610a69573d6000803e3d6000fd5b505050506040513d601f19601f82011682018060405250810190610a8d9190611511565b610acc576040517f08c379a0000000000000000000000000000000000000000000000000000000008152600401610ac39061158a565b60405180910390fd5b60005b82811015610b4d576007339080600181540180825580915050600190039060005260206000200160009091909190916101000a81548173ffffffffffffffffffffffffffffffffffffffff021916908373ffffffffffffffffffffffffffffffffffffffff1602179055508080610b4590611905565b915050610acf565b505050565b600160009054906101000a900473ffffffffffffffffffffffffffffffffffffffff1681565b670de0b6b3a764000081565b610b8c610d4d565b610bcb576040517f08c379a0000000000000000000000000000000000000000000000000000000008152600401610bc290611999565b60405180910390fd5b6000600660003373ffffffffffffffffffffffffffffffffffffffff1673ffffffffffffffffffffffffffffffffffffffff1681526020019081526020016000205490506000600660003373ffffffffffffffffffffffffffffffffffffffff1673ffffffffffffffffffffffffffffffffffffffff1681526020019081526020016000208190555060008054906101000a900473ffffffffffffffffffffffffffffffffffffffff1673ffffffffffffffffffffffffffffffffffffffff1663a9059cbb33836040518363ffffffff1660e01b8152600401610caf9291906114bc565b6020604051808303816000875af1158015610cce573d6000803e3d6000fd5b505050506040513d601f19601f82011682018060405250810190610cf29190611511565b610d31576040517f08c379a0000000000000000000000000000000000000000000000000000000008152600401610d289061158a565b60405180910390fd5b50565b60006007805490506064610d489190611645565b905090565b600080600660003373ffffffffffffffffffffffffffffffffffffffff1673ffffffffffffffffffffffffffffffffffffffff1681526020019081526020016000205411905090565b606481565b600254421015610de0576040517f08c379a0000000000000000000000000000000000000000000000000000000008152600401610dd790611a05565b60405180910390fd5b60005b600780549050811015610f265760008054906101000a900473ffffffffffffffffffffffffffffffffffffffff1673ffffffffffffffffffffffffffffffffffffffff1663a9059cbb60078381548110610e4057610e3f611751565b5b9060005260206000200160009054906101000a900473ffffffffffffffffffffffffffffffffffffffff16678ac7230489e800006040518363ffffffff1660e01b8152600401610e919291906114bc565b6020604051808303816000875af1158015610eb0573d6000803e3d6000fd5b505050506040513d601f19601f82011682018060405250810190610ed49190611511565b610f13576040517f08c379a0000000000000000000000000000000000000000000000000000000008152600401610f0a90611a71565b60405180910390fd5b8080610f1e90611905565b915050610de3565b5060076000610f359190611104565b565b60008054906101000a900473ffffffffffffffffffffffffffffffffffffffff1681565b60035481565b6000678ac7230489e80000600780549050610f7c9190611780565b905090565b6000600660008373ffffffffffffffffffffffffffffffffffffffff1673ffffffffffffffffffffffffffffffffffffffff168152602001908152602001600020549050919050565b60066020528060005260406000206000915090505481565b600160009054906101000a900473ffffffffffffffffffffffffffffffffffffffff1673ffffffffffffffffffffffffffffffffffffffff163373ffffffffffffffffffffffffffffffffffffffff1614611072576040517f08c379a00000000000000000000000000000000000000000000000000000000081526004016110699061149c565b60405180910390fd5b6000600780549050146110ba576040517f08c379a00000000000000000000000000000000000000000000000000000000081526004016110b190611b03565b60405180910390fd5b600760006110c89190611104565b610708426110d691906117c2565b600281905550565b600460009054906101000a900473ffffffffffffffffffffffffffffffffffffffff1681565b50805460008255906000526020600020908101906111229190611125565b50565b5b8082111561113e576000816000905550600101611126565b5090565b6000819050919050565b61115581611142565b82525050565b6000602082019050611170600083018461114c565b92915050565b600081519050919050565b600082825260208201905092915050565b6000819050602082019050919050565b600073ffffffffffffffffffffffffffffffffffffffff82169050919050565b60006111cd826111a2565b9050919050565b6111dd816111c2565b82525050565b60006111ef83836111d4565b60208301905092915050565b6000602082019050919050565b600061121382611176565b61121d8185611181565b935061122883611192565b8060005b8381101561125957815161124088826111e3565b975061124b836111fb565b92505060018101905061122c565b5085935050505092915050565b600060208201905081810360008301526112808184611208565b905092915050565b600080fd5b61129681611142565b81146112a157600080fd5b50565b6000813590506112b38161128d565b92915050565b6000602082840312156112cf576112ce611288565b5b60006112dd848285016112a4565b91505092915050565b6112ef816111c2565b82525050565b600060208201905061130a60008301846112e6565b92915050565b60008115159050919050565b61132581611310565b82525050565b6000602082019050611340600083018461131c565b92915050565b6000819050919050565b600061136b611366611361846111a2565b611346565b6111a2565b9050919050565b600061137d82611350565b9050919050565b600061138f82611372565b9050919050565b61139f81611384565b82525050565b60006020820190506113ba6000830184611396565b92915050565b6113c9816111c2565b81146113d457600080fd5b50565b6000813590506113e6816113c0565b92915050565b60006020828403121561140257611401611288565b5b6000611410848285016113d7565b91505092915050565b600082825260208201905092915050565b7f43616c6c6572206973206e6f7420746865206c6f7474657279206f706572617460008201527f6f72000000000000000000000000000000000000000000000000000000000000602082015250565b6000611486602283611419565b91506114918261142a565b604082019050919050565b600060208201905081810360008301526114b581611479565b9050919050565b60006040820190506114d160008301856112e6565b6114de602083018461114c565b9392505050565b6114ee81611310565b81146114f957600080fd5b50565b60008151905061150b816114e5565b92915050565b60006020828403121561152757611526611288565b5b6000611535848285016114fc565b91505092915050565b7f55534454207472616e73666572206661696c6564000000000000000000000000600082015250565b6000611574601483611419565b915061157f8261153e565b602082019050919050565b600060208201905081810360008301526115a381611567565b9050919050565b7f4e6f207469636b65747320776572652070757263686173656400000000000000600082015250565b60006115e0601983611419565b91506115eb826115aa565b602082019050919050565b6000602082019050818103600083015261160f816115d3565b9050919050565b7f4e487b7100000000000000000000000000000000000000000000000000000000600052601160045260246000fd5b600061165082611142565b915061165b83611142565b925082820390508181111561167357611672611616565b5b92915050565b6000819050919050565b61169461168f82611142565b611679565b82525050565b6000819050919050565b6000819050919050565b6116bf6116ba8261169a565b6116a4565b82525050565b60006116d18285611683565b6020820191506116e182846116ae565b6020820191508190509392505050565b7f4e487b7100000000000000000000000000000000000000000000000000000000600052601260045260246000fd5b600061172b82611142565b915061173683611142565b925082611746576117456116f1565b5b828206905092915050565b7f4e487b7100000000000000000000000000000000000000000000000000000000600052603260045260246000fd5b600061178b82611142565b915061179683611142565b92508282026117a481611142565b915082820484148315176117bb576117ba611616565b5b5092915050565b60006117cd82611142565b91506117d883611142565b92508282019050808211156117f0576117ef611616565b5b92915050565b7f4d75737420627579206174206c656173742031207469636b6574000000000000600082015250565b600061182c601a83611419565b9150611837826117f6565b602082019050919050565b6000602082019050818103600083015261185b8161181f565b9050919050565b7f4e6f7420656e6f756768207469636b65747320617661696c61626c6500000000600082015250565b6000611898601c83611419565b91506118a382611862565b602082019050919050565b600060208201905081810360008301526118c78161188b565b9050919050565b60006060820190506118e360008301866112e6565b6118f060208301856112e6565b6118fd604083018461114c565b949350505050565b600061191082611142565b91507fffffffffffffffffffffffffffffffffffffffffffffffffffffffffffffffff820361194257611941611616565b5b600182019050919050565b7f43616c6c6572206973206e6f7420612077696e6e657200000000000000000000600082015250565b6000611983601683611419565b915061198e8261194d565b602082019050919050565b600060208201905081810360008301526119b281611976565b9050919050565b7f4c6f747465727920686173206e6f742065787069726564207965740000000000600082015250565b60006119ef601b83611419565b91506119fa826119b9565b602082019050919050565b60006020820190508181036000830152611a1e816119e2565b9050919050565b7f5553445420726566756e64206661696c65640000000000000000000000000000600082015250565b6000611a5b601283611419565b9150611a6682611a25565b602082019050919050565b60006020820190508181036000830152611a8a81611a4e565b9050919050565b7f43616e6e6f742072657374617274207768696c65207469636b6574732065786960008201527f7374000000000000000000000000000000000000000000000000000000000000602082015250565b6000611aed602283611419565b9150611af882611a91565b604082019050919050565b60006020820190508181036000830152611b1c81611ae0565b905091905056fea264697066735822122062b114a3dad33a39ced68707789a359fabe5e9f2cbf610d30e41a6ce595a698a64736f6c63430008140033",
  "linkReferences": {},
  "deployedLinkReferences": {}
}